:020000040800F2
:100000000000042055160008991500089B150008EB
:100010009D1500089F150008A115000800000000AC
:10002000000000000000000000000000A315000810
:10003000A515000800000000A7150008A915000874
:10004000A5160008A5160008A5160008A5160008A4
:10005000A5160008A5160008A5160008A516000894
:10006000A5160008A5160008A5160008A516000884
:10007000A5160008A5160008A5160008A516000874
:10008000A5160008A5160008A5160008A516000864
:10009000A5160008A5160008A5160008A516000854
:1000A000A5160008A5160008A5160008A516000844
:1000B000A5160008A5160008A5160008A516000834
:1000C000A5160008A5160008A5160008A516000824
:1000D000A5160008A5160008A5160008A516000814
:1000E000A5160008A5160008A5160008A516000804
:1000F000A5160008A5160008A5160008A5160008F4
:10010000A5160008A5160008A5160008A5160008E3
:10011000A5160008A5160008A5160008A5160008D3
:10012000A5160008A5160008A5160008A5160008C3
:10013000A5160008000000000000000000000000FC
:10014000000000000000000000000000A5160008EC
:10015000A5160008A5160008A5160008A516000893
:10016000A5160008A5160008A5160008A516000883
:10017000A5160008A51600080000000000000000F9
:10018000A5160008A5160008A5160008A516000863
:10019000A5160008A516000800000000A516000816
:1001A000000000000000000000000000A51600088C
:1001B000A5160008A51600080000000000000000B9
:1001C000000000000000000000000000000000002F
:1001D000000000000000000000000000A51600085C
:1001E00010B5054C237833B9044B13B10448AFF371
:1001F00000800123237010BDD40100200000000006
:100200005065000808B5034B1BB103490348AFF321
:10021000008008BD00000000D801002050650008E3
:1002200001F0FF01102A2BDB10F0070F08D010F8A7
:10023000013B013A8B422DD010F0070F42B3F6D1AB
:10024000F0B441EA012141EA014122F007047FF0C4
:1002500000070023F0E80256083C85EA010586EA1B
:10026000010685FA47F5A3FA87F586FA47F6A5FA57
:1002700087F68EB9EED1F0BC01F0FF0102F0070263
:1002800032B110F8013B013A83EA010313B1F8D10E
:100290000020704701387047002D06BF35460338EF
:1002A000073815F0010F07D1013015F4807F02BF28
:1002B000013015F4C03F0130F0BC0138704700BF79
:1002C000034613F8012B002AFBD1181A0138704796
:1002D00081F0004102E000BF83F0004330B54FEAF7
:1002E00041044FEA430594EA050F08BF90EA020F64
:1002F0001FBF54EA000C55EA020C7FEA645C7FEAF7
:10030000655C00F0E2804FEA5454D4EB5555B8BF19
:100310006D420CDD2C4480EA020281EA030382EA8A
:10032000000083EA010180EA020281EA0303362D1C
:1003300088BF30BD11F0004F4FEA01314FF4801CEF
:100340004CEA113102D0404261EB410113F0004F01
:100350004FEA03334CEA133302D0524263EB4303B8
:1003600094EA050F00F0A780A4F10104D5F1200E56
:100370000DDB02FA0EFC22FA05F2801841F10001B1
:1003800003FA0EF2801843FA05F359410EE0A5F185
:1003900020050EF1200E012A03FA0EFC28BF4CF0B6
:1003A000020C43FA05F3C01851EBE37101F000456C
:1003B00007D54FF0000EDCF1000C7EEB00006EEB79
:1003C0000101B1F5801F1BD3B1F5001F0CD3490803
:1003D0005FEA30004FEA3C0C04F101044FEA44525A
:1003E00012F5800F80F09A80BCF1004F08BF5FEAE1
:1003F000500C50F1000041EB045141EA050130BDC1
:100400005FEA4C0C404141EB0101013C28BFB1F5D2
:10041000801FE9D291F0000F04BF01460020B1FA1D
:1004200081F308BF2033A3F10B03B3F120020CDAF0
:100430000C3208DD02F1140CC2F10C0201FA0CF0CE
:1004400021FA02F10CE002F11402D8BFC2F1200C33
:1004500001FA02F120FA0CFCDCBF41EA0C019040E9
:10046000E41AA2BF01EB0451294330BD6FEA040432
:100470001F3C1CDA0C340EDC04F11404C4F120021D
:1004800020FA04F001FA02F340EA030021FA04F32F
:1004900045EA030130BDC4F10C04C4F1200220FA86
:1004A00002F001FA04F340EA0300294630BD21FAC4
:1004B00004F0294630BD94F0000F83F4801306BF8A
:1004C00081F480110134013D4EE77FEA645C18BF7E
:1004D0007FEA655C29D094EA050F08BF90EA020F15
:1004E00005D054EA000C04BF1946104630BD91EA0D
:1004F000030F1EBF0021002030BD5FEA545C05D110
:100500004000494128BF41F0004130BD14F580044E
:100510003CBF01F5801130BD01F0004545F0FE41C2
:1005200041F470014FF0000030BD7FEA645C1ABFF7
:10053000194610467FEA655C1CBF0B46024650EA2E
:10054000013406BF52EA033591EA030F41F400215A
:1005500030BD00BF90F0000F04BF0021704730B5E0
:100560004FF4806404F132044FF000054FF00001B5
:1005700050E700BF90F0000F04BF0021704730B576
:100580004FF4806404F1320410F0004548BF40424B
:100590004FF000013EE700BF42004FEAE2014FEAA0
:1005A00031014FEA02701FBF12F07F4393F07F4F7B
:1005B00081F06051704732F07F4208BF704793F07E
:1005C0007F4F04BF41F40021704730B54FF4607491
:1005D00001F0004521F000411CE700BF50EA010294
:1005E00008BF704730B54FF000050AE050EA01023D
:1005F00008BF704730B511F0004502D5404261EBAD
:1006000041014FF4806404F132045FEA915C3FF4ED
:10061000D8AE4FF003025FEADC0C18BF03325FEA8A
:10062000DC0C18BF033202EBDC02C2F1200300FA3B
:1006300003FC20FA02F001FA03FE40EA0E0021FA60
:1006400002F11444BDE600BF70B54FF0FF0C4CF44E
:10065000E06C1CEA11541DBF1CEA135594EA0C0F00
:1006600095EA0C0F00F0DEF82C4481EA030621EA3B
:100670004C5123EA4C5350EA013518BF52EA033576
:1006800041F4801143F4801338D0A0FB02CE4FF028
:100690000005E1FB02E506F00042E0FB03E54FF058
:1006A0000006E1FB03569CF0000F18BF4EF0010E50
:1006B000A4F1FF04B6F5007F64F5407404D25FEA4C
:1006C0004E0E6D4146EB060642EAC62141EA5551FF
:1006D0004FEAC52040EA5E504FEACE2EB4F1FD0C41
:1006E00088BFBCF5E06F1ED8BEF1004F08BF5FEABF
:1006F000500E50F1000041EB045170BD06F0004671
:1007000046EA010140EA020081EA0301B4EB5C041D
:10071000C2BFD4EB0C0541EA045170BD41F4801115
:100720004FF0000E013C00F3AB8014F1360FDEBF3A
:10073000002001F0004170BDC4F10004203C35DA16
:100740000C341BDC04F11404C4F1200500FA05F399
:1007500020FA04F001FA05F240EA020001F000423A
:1007600021F0004110EBD37021FA04F642EB0601B0
:100770005EEA430E08BF20EAD37070BDC4F10C04DA
:10078000C4F1200500FA04F320FA05F001FA04F29E
:1007900040EA020001F0004110EBD37041F100018A
:1007A0005EEA430E08BF20EAD37070BDC4F1200595
:1007B00000FA05F24EEA020E20FA04F301FA05F2FD
:1007C00043EA020321FA04F001F0004121FA04F2A5
:1007D00020EA020000EBD3705EEA430E08BF20EA75
:1007E000D37070BD94F0000F0FD101F000464000AF
:1007F00041EB010111F4801F08BF013CF7D041EA31
:10080000060195F0000F18BF704703F00046520034
:1008100043EB030313F4801F08BF013DF7D043EA05
:100820000603704794EA0C0F0CEA135518BF95EABB
:100830000C0F0CD050EA410618BF52EA4306D1D142
:1008400081EA030101F000414FF0000070BD50EA61
:10085000410606BF1046194652EA430619D094EAEB
:100860000C0F02D150EA013613D195EA0C0F05D1D5
:1008700052EA03361CBF104619460AD181EA030129
:1008800001F0004141F0FE4141F470014FF00000E1
:1008900070BD41F0FE4141F4780170BD70B54FF07C
:1008A000FF0C4CF4E06C1CEA11541DBF1CEA1355FC
:1008B00094EA0C0F95EA0C0F00F0A7F8A4EB0504DE
:1008C00081EA030E52EA03354FEA013100F08880D5
:1008D0004FEA03334FF0805545EA131343EA12639E
:1008E0004FEA022245EA111545EA10654FEA002653
:1008F0000EF000419D4208BF964244F1FD0404F50C
:10090000407402D25B084FEA3202B61A65EB030567
:100910005B084FEA32024FF480104FF4002CB6EB24
:10092000020E75EB030E22BFB61A754640EA0C00A4
:100930005B084FEA3202B6EB020E75EB030E22BFE4
:10094000B61A754640EA5C005B084FEA3202B6EB25
:10095000020E75EB030E22BFB61A754640EA9C00E4
:100960005B084FEA3202B6EB020E75EB030E22BFB4
:10097000B61A754640EADC0055EA060E18D04FEA72
:10098000051545EA16754FEA06164FEAC30343EA12
:1009900052734FEAC2025FEA1C1CC0D111F4801FDF
:1009A0000BD141EA00014FF000004FF0004CB6E7D8
:1009B00011F4801F04BF01430020B4F1FD0C88BF77
:1009C000BCF5E06F3FF6AFAEB5EB030C04BFB6EB82
:1009D000020C5FEA500C50F1000041EB045170BD75
:1009E0000EF0004E4EEA113114EB5C04C2BFD4EBA2
:1009F0000C0541EA045170BD41F480114FF0000E26
:100A0000013C90E645EA060E8DE60CEA135594EAA1
:100A10000C0F08BF95EA0C0F3FF43BAF94EA0C0FA4
:100A20000AD150EA01347FF434AF95EA0C0F7FF419
:100A300025AF104619462CE795EA0C0F06D152EA6D
:100A400003353FF4FDAE1046194622E750EA410651
:100A500018BF52EA43067FF4C5AE50EA41047FF462
:100A60000DAF52EA43057FF4EBAE12E74FF0FF3CC7
:100A700006E000BF4FF0010C02E000BF4FF0010C98
:100A80004DF804CD4FEA410C7FEA6C5C4FEA430C11
:100A900018BF7FEA6C5C1BD001B050EA410C0CBF60
:100AA00052EA430C91EA030F02BF90EA020F0020C2
:100AB000704710F1000F91EA030F58BF994208BF29
:100AC00090422CBFD8176FEAE37040F001007047E6
:100AD0004FEA410C7FEA6C5C02D150EA013C07D13D
:100AE0004FEA430C7FEA6C5CD6D152EA033CD3D088
:100AF0005DF8040B704700BF8446104662468C4682
:100B00001946634600E000BF01B5FFF7B7FF0028B4
:100B100048BF10F1000F01BD4DF808EDFFF7F4FFDD
:100B20000CBF012000205DF808FB00BF4DF808ED68
:100B3000FFF7EAFF34BF012000205DF808FB00BF8B
:100B40004DF808EDFFF7E0FF94BF012000205DF8AD
:100B500008FB00BF4DF808EDFFF7CEFF94BF012062
:100B600000205DF808FB00BF4DF808EDFFF7C4FF5B
:100B700034BF012000205DF808FB00BF4FEA410CA4
:100B80007FEA6C5C02D150EA013C0AD14FEA430C87
:100B90007FEA6C5C02D152EA033C02D14FF00000C4
:100BA00070474FF0010070474FEA410212F5001202
:100BB00015D211D56FF47873B3EB625212D94FEAA4
:100BC000C12343F0004343EA505311F0004F23FA8E
:100BD00002F018BF404270474FF00000704750EAE3
:100BE000013005D111F0004008BF6FF000407047A0
:100BF0004FF00000704700BF53B94AB9002908BF41
:100C000000281CBF4FF0FF314FF0FF3000F06AB9F1
:100C1000ADF1080C6DE904CE00F006F8DDF804E053
:100C2000DDE9022304B070472DE9F047089D0C462A
:100C3000002B4ED194468C458646B2FA82F262D998
:100C40004AB1C2F12003914020FA03F30CFA02FCEE
:100C5000194300FA02FE4FEA1C471FFA8CF6B1FB5B
:100C6000F7F44FEA1E4307FB141143EA014304FB68
:100C700006F199420AD91CEB030304F1FF3080F01E
:100C80001281994240F20F81023C6344591A1FFAC3
:100C90008EF3B1FBF7F007FB101143EA014300FBB1
:100CA00006F69E420AD91CEB030300F1FF3180F0E7
:100CB000FC809E4240F2F980634402389B1B40EA6C
:100CC000044000211DB1D3400022C5E90032BDE837
:100CD000F0878B4205D90DB1C5E900010021084616
:100CE000F5E7B3FA83F1002946D1A34202D390423B
:100CF000C0F0F080861A64EB03030120002DE6D0DB
:100D0000C5E90063E3E7002A40F09080A1EB0C0402
:100D10004FEA1C481FFA8CF70121B4FBF8F64FEAA2
:100D20001E4308FB164443EA044307FB06F09842BF
:100D300008D91CEB030306F1FF3402D2984200F2FB
:100D4000CD8026461C1A1FFA8EF3B4FBF8F008FB80
:100D5000104443EA044300FB07F79F4208D91CEB09
:100D6000030300F1FF3402D29F4200F2B08020461C
:100D7000DB1B40EA0640A5E7C1F120068B4022FAC2
:100D800006F71F4320FA06FC04FA01F343EA0C03BA
:100D9000F44000FA01F8380C4FEA1349B4FBF0FEB6
:100DA0001FFA87FC00FB1E4449EA04440EFB0CF9C1
:100DB000A14502FA01F20AD93C190EF1FF3A80F07E
:100DC0008480A14540F28180AEF1020E3C44A4EB48
:100DD00009041FFA83F9B4FBF0F300FB134449EA5A
:100DE000044403FB0CFCA44507D93C1903F1FF3074
:100DF00067D2A44565D9023B3C4443EA0E40A0FBC0
:100E00000293A4EB0C049C42CE469C4651D34ED098
:100E100055B1B8EB0E0364EB0C0404FA06F6CB40B4
:100E20001E43CC40C5E90064002150E7C2F1200315
:100E300020FA03F10CFA02FC24FA03F394400C4369
:100E40004FEA1C4800FA02FE1FFA8CF7B3FBF8F0D9
:100E500008FB1031230C43EA014300FB07F19942E0
:100E600008D91CEB030300F1FF362CD299422AD992
:100E7000023863445B1AA4B2B3FBF8F108FB1133E8
:100E800044EA034401FB07F3A34208D91CEB040422
:100E900001F1FF3613D2A34211D902396444E41A96
:100EA00041EA004139E70446F0E6084606E7C8454E
:100EB000AED2B9EB020E63EB070C0138A8E731465E
:100EC000EDE7034699E73046D4E7D6467FE763442B
:100ED00002384DE70646234608460FE7023E6344C4
:100EE00030E700BF704700BF10B51446642392B2CC
:100EF000024802F0C8F8204610BD00BF14020020CE
:100F00000368DA69120773B5044601D508221A622C
:100F100000232C4D2C4E8DF80230002301220DF1C0
:100F20000201204602F0FEF808B102B070BD9DF843
:100F300002202B680A2A01D00D2A3CD100229342BC
:100F4000F25420DD01AB0DF103022049304602F0DE
:100F5000BDFE012817DD9DF80330303B092B12D868
:100F6000DFE803F01C05050A141111112520019A70
:100F7000174B9A635A6306E00199154AC1F53B6322
:100F800008339363516300232B60C6E7019B104A2B
:100F90009363C3F53B6308335363F4E70C4B40F2B0
:100FA000DC52E6E70B4B4FF4FA721A64EBE7094B9D
:100FB00040F2DC52F9E71E2B9EBF591CF254296007
:100FC000ABE700BFF0010020F401002074650008C9
:100FD000000800400004004010B594B01422002125
:100FE000022409A802F0E1FE1422002103A802F065
:100FF000DCFE204B012100201A6C42F080521A6462
:101000001B6C03F080530193019B1B4B1A6842F445
:1010100040421A601B68089403F440430E941394F2
:101020000293029B1023CDE90B130823CDE90F0394
:10103000D82308A8CDE9113400F030FD08B172B60C
:10104000FEE700F0F3FC08B172B6FEE70F234FF4A1
:10105000A0520590072103A8CDE903344FF4805333
:10106000CDE9062300F002FF08B172B6FEE714B026
:1010700010BD00BF00380240007000402DE98048DC
:10108000102593B0002100242A460BA802F08DFE03
:10109000012600F0A3FB48F21F730BA8ADF82C60EB
:1010A00002274FF00C09CDE90C4340F201130E93D7
:1010B00000F0B2FB042000F09FFB00F019FBFFF7EB
:1010C0008BFF142221460BA802F06FFE914B29469C
:1010D00091481A6B32431A631A6B32400192019A9B
:1010E0001A6B42F002021A631A6B02F002020292B9
:1010F000029A1A6B42F004021A6332461B6B03F029
:1011000004030393039B00F08BFC0BA98248CDE9F9
:101110000B56CDE90D6400F0ABFB0F230BA97F4804
:101120000F93CDE90B77CDE90D4400F0A1FB7C488E
:10113000DFF810C24FF4E13304614462C0E900C338
:10114000C0E90244C0E90594C0E9074402F077F819
:10115000834608B172B6FEE701462A4607A8714CDD
:1011600002F023FE1C2259460BA84FF06B0A4FF4E5
:10117000FA68CDF818B0CDE904BB02F016FE6A4B50
:101180002046C4F808B0C4F818B0C4E9003AC4E96D
:10119000038B01F011FB08B172B6FEE74FF48053E8
:1011A00007A92046079301F025FC08B172B6FEE7B7
:1011B000204601F031FB08B172B6FEE7049004A9A5
:1011C0000690204601F042FD024608B172B6FEE7E5
:1011D00060230D900F900BA9CDE90B30204601F054
:1011E00083FB08B172B6FEE704220BA9204601F08A
:1011F0007BFB834608B172B6FEE720464B4C00F0FD
:1012000015F94B484FF48273C0F808B04661C0F836
:1012100028B0C0F834B0C0E900434FF4E063C0E93F
:1012200003374FF40073C0E9063B0723C0E908BB4E
:10123000C0E90B3B01F006F9034608B172B6FEE7C0
:101240003C484FF461423C49C0E90233C0E9001216
:10125000C0E90439C0E90633C0E9083301F0EFFF03
:10126000044608B172B6FEE701462A4607A802F016
:101270009CFD1C2221460BA80694CDE9044402F0F3
:1012800094FD2E482E4B04618461C0E9003AC0E908
:10129000024801F091FA08B172B6FEE74FF48053AC
:1012A00007A92648079301F0A5FB08B172B6FEE72F
:1012B000224801F0B1FA08B172B6FEE7049004A921
:1012C00006901E4801F0C2FC08B172B6FEE760232A
:1012D0000D900F900C220BA9CDE90B30174801F0AF
:1012E00003FB044608B172B6FEE7144800F09EF80E
:1012F00021460C4801F0A8FC0E4C0421094801F0DD
:10130000A3FC0C210D4801F09FFC2046FFF7F8FDDF
:10131000FBE700BF0038024000000240000402402A
:101320009C020020240300200008004000300140FF
:10133000BC0300201402002000480040700300207D
:10134000000400400044004072B6FEE70A4B82B041
:101350001A6C42F080521A641A6C02F080520092A9
:10136000009A5A6C42F480425A645B6C03F48043E6
:101370000193019B02B070470038024010B588B05D
:1013800004461422002103A802F00FFD2268124B2C
:101390009A421FD103F58433032110485A6C42F45A
:1013A00080525A645A6C02F480520192019A1A6B6C
:1013B00042F001021A63E0221B6B03F00103029367
:1013C000029B0223CDE903230523CDE9061303A9DC
:1013D00000F04EFA08B010BD00300140000002409D
:1013E000036882B00E4A93420BD10E4B1A6C42F046
:1013F00002021A641B6C03F002030093009B02B00C
:101400007047094A9342FAD1064B1A6C42F0040223
:101410001A641B6C03F004030193019BEFE700BF08
:1014200000040040003802400008004010B588B0B9
:1014300004461422002103A802F0B7FC2368174ACF
:10144000934215D1164B4FF4007116481A6B42F0B7
:1014500004021A631B6B03F004030193019B022334
:10146000CDE9031303A9079300F002FA08B010BDF9
:101470000D4A9342FAD10A4B03A90C481A6B42F069
:1014800002021A63C0221B6B03F002030293029B49
:101490000223CDE903230793E6E700BF00040040E1
:1014A00000380240000802400008004000040240EA
:1014B00030B51422ABB08025044600210DEB0200AC
:1014C00002F073FC2A4600210AA802F06EFC236891
:1014D0002C4A934229D10AA80A9500F085FD08B14B
:1014E000FFF732FF284B0C20002405A91A6C42F4A8
:1014F00000321A641A6C02F400320192019A1A6BDB
:1015000042F001021A631B6B03F001030293029B7A
:101510000223CDE9050303231C48CDE90743072334
:10152000099300F0A5F92BB030BD194A9342FAD1C6
:101530004FF480730AA80A9300F056FD08B1FFF734
:1015400003FF114B002113481A6C42F480221A64E5
:101550001A6C02F480220392039A1A6B42F0020280
:101560001A634FF440621B6B03F002030493049B65
:101570000223CDE905230323CDE90713072305A99A
:101580000993CEE7004400400038024000000240CA
:101590000048004000040240FEE7FEE7FEE7FEE7E9
:1015A000FEE770477047704700F0AEB80120704703
:1015B00008B502F04DFC162303604FF0FF3008BD64
:1015C00008B502F045FC16230360FEE770B50D4632
:1015D00014460E46731B9C4201DC204670BDAFF3DF
:1015E000008006F8010BF5E74FF0FF3070474FF42D
:1015F000005300204B607047012070470020704767
:101600000B4A0346116810B509B90A491160106800
:1016100009490A4C0344091B8B4206D902F018FC05
:101620000C2303604FF0FF3010BD1360FCE700BFD8
:1016300020040020780500200000042000040000A1
:10164000034AD2F8883043F47003C2F888307047F8
:1016500000ED00E0DFF834D0FFF7F2FF0C480D4951
:101660000D4A002302E0D458C4500433C4188C42FD
:10167000F9D30A4A0A4C002301E013600432A24263
:10168000FBD302F0EBFBFFF7F9FC704700000420EE
:1016900000000020D40100202C690008D4010020A3
:1016A00074050020FEE7000038B50E4B05461A7899
:1016B0004FF47A73B3FBF2F30B4A1068B0FBF3F00C
:1016C00000F078F8044658B90F2D09D8024629468B
:1016D0004FF0FF3000F03CF8044B20461D6038BD51
:1016E0000120FCE70400002000000020080000208A
:1016F00008B5032000F01AF80F20FFF7D5FFFFF719
:1017000025FE002008BD0000034A044B11681B7829
:101710000B441360704700BF240400200400002025
:10172000014B1868704700BF2404002007490302DA
:10173000CA6803F4E06322F4E0621204120C13435B
:1017400043F0BF6343F40033CB60704700ED00E02B
:10175000164B30B5DC68C4F30224C4F10703251D21
:10176000042B28BF0423062D4FF0FF358CBF033C0C
:10177000002405FA03F3002805FA04F521EA03031F
:1017800022EA050203FA04F343EA02034FEA0313D1
:10179000DBB206DB00F1604000F5614080F8003309
:1017A00030BD00F00F00024A1354F9E700ED00E0ED
:1017B00014ED00E00138B0F1807F0BD24FF0E02350
:1017C000054AF0215861002082F823100722986111
:1017D0001A6170470120704700ED00E0BFF35F8F92
:1017E000044B5A6A22F480325A620022C3F89420D1
:1017F000704700BF00ED00E0064B40F00100C3F869
:1018000094005A6A42F480325A62BFF34F8FBFF39A
:101810006F8F704700ED00E04378144A10B5C2F8AE
:1018200098300178E9B14368C2F89C30C37A047BF0
:101830001B0643EA04730B43817A43EAC143417BAD
:1018400043EA8143817B43EA4143C17B43EA01434D
:10185000417A43EA0123017A43EA4103C2F8A03006
:1018600010BDC2F89C10C2F8A010F9E700ED00E02E
:101870002DE9F74F0023DFF8A491664A01240D6893
:101880009C4004EA0506AC4340F0AF804D68032756
:101890004FEA430E05F0030407FA0EFC671E6FEAD9
:1018A0000C0C012F34D8876807EA0C08CF6807FAB8
:1018B0000EF747EA08078760476827EA0608C5F376
:1018C00000179F4047EA08074760C768022C07EAED
:1018D0000C088F6807FA0EF747EA0807C76019D1A6
:1018E0004FEAD30803F0070A4FF00F0B00EB88080C
:1018F0004FEA8A0AD8F820700BFA0AFB27EA0B0B8A
:101900000F6907FA0AF747EA0B07C8F8207001E0E9
:10191000032CDAD1076804FA0EF415F4403F07EA05
:101920000C0744EA070404605FD0D9F8444023F070
:10193000030703F0030C4FF00F0E44F4804407F14B
:1019400080474FEA8C0CC9F8444007F59C37D9F81A
:1019500044400EFA0CFE04F480440194019CBC68DF
:1019600024EA0E0E2C4CA04246D004F58064A0421E
:1019700044D004F58064A04242D004F58064A042C3
:1019800040D004F58064A0423ED004F58064A042BB
:101990003CD004F58064A0423AD004F58064A042B3
:1019A00014BF0824072404FA0CF415F4801F44EA39
:1019B0000E04BC606FEA060794680CBF3C403443D9
:1019C00015F4001F9460D4680CBF3C40344315F4F8
:1019D000003FD46054680CBF3C403443ED03546076
:1019E000146854BF3C40344314600133102B7FF41F
:1019F00045AF03B0BDE8F08F0024D4E70124D2E75F
:101A00000224D0E70324CEE70424CCE70524CAE768
:101A10000624C8E7003C01400000024000380240B4
:101A20000AB1816170470904FBE70000194B37B523
:101A30001A6C194C42F080521A641B6C03F08053EC
:101A40000193019B236843F480332360FFF768FE12
:101A500005466368DA030CD523680F4D43F4003361
:101A60002360FFF75DFE04466B689B030AD50020E8
:101A700006E0FFF755FE401BB0F57A7FE9D9032059
:101A800003B030BDFFF74CFE001BB0F57A7FEBD9F9
:101A9000F5E700BF00380240007000402DE9F34137
:101AA000044640B30368DE0710D423689D0761D461
:101AB0002368190700F1A68023685A0700F1C78040
:101AC000A269002A40F0308100202CE0944B9A68F3
:101AD00002F00C02042A07D09A6802F00C02082ACD
:101AE0000BD15B68590208D58D4B1B689A03DCD576
:101AF0006368002BD9D1012015E06368884DB3F5E8
:101B0000803F13D12B6843F480332B60FFF708FE2E
:101B1000834E054633689B03C7D4FFF701FE401B85
:101B20006428F7D9032002B0BDE8F0819BB92B6887
:101B300023F480332B602B6823F480232B60FFF782
:101B4000EFFD06462B689F03AFD5FFF7E9FD801B2D
:101B50006428F7D9E6E7B3F5A02F2B6803D143F447
:101B600080232B60CEE723F480332B602B6823F493
:101B70008023CAE76A4B9A6812F00C0F07D09A6864
:101B800002F00C02082A11D15B685D020ED4644A8F
:101B90001368990702D5E368012BACD1136821695A
:101BA00023F0F80343EAC103136081E7E3685C4D67
:101BB000BBB12B6843F001032B60FFF7B1FD064674
:101BC0002B689B0707D52B68226923F0F80343EAAB
:101BD000C2032B606CE7FFF7A3FD801B0228EFD93F
:101BE000A0E72B6823F001032B60FFF799FD064661
:101BF0002B689F077FF55CAFFFF792FD801B0228E3
:101C0000F6D98FE76369464D83B16B6F43F00103EB
:101C10006B67FFF785FD06466B6F9B073FF54CAF83
:101C2000FFF77EFD801B0228F6D97BE76B6F23F060
:101C300001036B67FFF774FD06466B6F9F077FF527
:101C40003BAFFFF76DFD801B0228F6D96AE7344BE6
:101C50001A6CD50027D41A6C012742F080521A64FE
:101C60001B6C03F080530193019B2E4D2B68D8050C
:101C70001BD5A3682A4D012B27D12B6F43F00103FD
:101C80002B6741F28838FFF74BFD254E0546336F31
:101C90009A073FD5002F3FF413AF214A136C23F06E
:101CA000805313640CE70027DFE72B6843F480734D
:101CB0002B60FFF735FD06462B68D905D9D4FFF711
:101CC0002FFD801B6428F7D92CE7ABB92B6F41F2AD
:101CD000883823F001032B672B6F23F004032B6755
:101CE000FFF71EFD06462B6F9B07D3D5FFF718FDA8
:101CF000801B4045F7D915E7052B2B6F03D143F027
:101D000004032B67B9E723F001032B672B6F23F044
:101D10000403B5E7FFF704FD401B4045B7D901E7D1
:101D20000038024000700040384DAB6803F00C03EF
:101D3000082B41D02B68022A23F080732B602ED110
:101D4000FFF7EEFC06462B68990122D4A36A5B08D4
:101D50005A1ED4E907310B4343EA0243626A43EA5D
:101D60008213E26A43EA026343F000536B602B681C
:101D700043F080732B60FFF7D3FC244D04462B689F
:101D80009A013FF5A1AEFFF7CBFC001B0228F6D964
:101D9000C8E6FFF7C5FC801B0228D4D9C2E6FFF7CE
:101DA000BFFC04462B689B017FF58EAEFFF7B8FCA5
:101DB000001B0228F6D9B5E6012A6B683FF49BAEFA
:101DC00003F48002E1698A427FF495AE03F03F029A
:101DD000216A8A427FF48FAE47F6C072616A1A4068
:101DE000B2EB811F7FF487AEA26A03F44031520840
:101DF000013AB1EB024F7FF47EAEE26A03F070630A
:101E0000B3EB026F14BF012000208CE600380240C3
:101E1000134908B58B6803F00C03042B1BD0082B67
:101E20001BD14A684B68496802F03F0213F48003F3
:101E3000C1F388111ABF0B4800230B48A1FB000116
:101E4000FEF7DAFE064B5B68C3F3014301335B0028
:101E5000B0FBF3F008BD0348FCE70348FAE700BF16
:101E60000038024080BA8C010024F4002DE9F041D2
:101E70000D46044610B90120BDE8F081454A1368BB
:101E800003F00F038B4228D321688F0730D4C80793
:101E900043D4404A136803F00F03AB4266D822686C
:101EA00051076FD4130707D53B4A2169936823F480
:101EB000604343EAC1039360FFF7AAFF364B374AFA
:101EC0009B68C3F30313D35CD840354B1860354B84
:101ED0001868FFF7E9FB0020CEE7136823F00F0333
:101EE0000B431360136803F00F038B42C3D1CBE79E
:101EF00011F0040F284B03D09A6842F4E0529A6024
:101F00000E0703D59A6842F460429A609A68A06806
:101F100022F0F00202439A60B9E761681E4B012982
:101F20001A681BD112F4003FA5D09A6841F2883894
:101F3000194F22F003020A439A60FFF7F1FB0646AD
:101F4000BB68626803F00C03B3EB820FA1D0FFF70C
:101F5000E7FB801B4045F3D903208DE7022902D11E
:101F600012F0007FE0E712F0020FDDE7136823F0C4
:101F70000F032B431360136803F00F03AB427FF48E
:101F80007AAF8CE70449E0688B6823F4E05303439D
:101F90008B6087E7003C0240003802408265000801
:101FA0000000002008000020044B054A9B68C3F392
:101FB0008223D35C034A1068D8407047003802403F
:101FC0007A65000800000020044B054A9B68C3F3B3
:101FD0004233D35C034A1068D8407047003802404F
:101FE0007A6500080000002003682DE9F74313F02C
:101FF000010604460BD0AC4A916821F400019160BF
:10200000C66A91683143B6FA86F67609916013F490
:10201000002512D0A449656BD1F88C20B5F5801F3E
:1020200022F4401208BF012642EA050216BFB5FAA3
:1020300085F500256D09C1F88C20D90210D59A4884
:10204000A16BD0F88C20B1F5800F22F4400242EA57
:102050000102C0F88C2000F04C81002908BF012546
:102060009A0632D5904B914F1A6C42F080521A6406
:102070001B6C03F080530193019B3B6843F4807316
:102080003B60FFF74DFB80463B68DB0540F1338149
:10209000854FA26A3B6F13F4407340F03781A36A07
:1020A00003F44072B2F5407F7F4A40F0548191685A
:1020B00023F0704021F4F81120F440700143916046
:1020C000C3F30B03116F0B4313672368DA060CD5B8
:1020D000754AD2F88C1021F08071C2F88C10D2F8B9
:1020E0008C10206B0143C2F88C105F0408D56E4938
:1020F000E06DD1F8902022F440320243C1F89020E4
:10210000180408D56849206ED1F8902022F44022A6
:102110000243C1F89020D90308D56349606ED1F815
:10212000902022F440120243C1F890205A0608D5AC
:102130005D49E06BD1F8902022F003020243C1F820
:1021400090201F0608D55849206CD1F8902022F025
:102150000C020243C1F89020D80508D55249606CA2
:10216000D1F8902022F030020243C1F89020990566
:1021700008D54D49A06CD1F8902022F0C00202434E
:10218000C1F890205A0508D54749E06CD1F8902055
:1021900022F440720243C1F890201F0508D542493D
:1021A000206DD1F8902022F440620243C1F89020C3
:1021B000D80408D53C49606DD1F8902022F44052F3
:1021C0000243C1F89020990408D53749A06DD1F891
:1021D000902022F440420243C1F890209A020CD58C
:1021E0003148616FD0F89020B1F1006F22F00062A9
:1021F00008BF01250A43C0F890205F0308D52A498B
:10220000E06ED1F8902022F040720243C1F8902095
:10221000180208D52449A06FD1F8902022F08052EE
:102220000243C1F89020590108D51F49E06FD1F849
:10223000902022F000520243C1F89020002E40F07E
:102240008E809A0100F18B80012D50D1164D2B68A4
:1022500023F080532B60FFF763FA06462B689F003C
:1022600000F1E08021680D0301D5636B1BB1C8024A
:102270001ED5A36BE3B90C4AD4E90453D2F8880005
:102280001B0600F4403043EA85130343C2F888304C
:10229000D2F88C30206A23F4F853013843EA002343
:1022A000C2F88C3004E000BF0038024000700040EB
:1022B0008A0210D5636FB3F1006F0CD16049A36936
:1022C000D1F8882020691B0402F0706243EA801371
:1022D0001343C1F888305A4C236843F0805323607D
:1022E000FFF71EFA054623689B0040F1A2800020FC
:1022F00009E00126B4E6FFF713FAA0EB0800642812
:102300007FF6C2AE032003B0BDE8F08302F4407252
:1023100093423FF4C4AE3B6F3A6F23F4407342F4F0
:1023200080323A673A6F22F480323A673B673B6FFC
:10233000D8077FF5B4AEFFF7F3F941F2883980464C
:102340003B6F99073FF5ABAEFFF7EAF9A0EB08004A
:102350004845F5D9D6E7916821F4F811AFE6384E33
:10236000336823F080633360FFF7DAF90746336898
:102370001B0151D42268D7070DD5E36A5BB9D6F8A3
:102380008410D4E9010301F070611B0743EA801354
:102390000B43C6F88430100303D5636BB3F5801F7D
:1023A00005D0D10219D5A36BB3F5800F15D12449FF
:1023B000E368D1F8840066681B0600F0E04043EA59
:1023C00086130343C1F88430D1F88C00E36920F010
:1023D0001F00013B0343C1F88C3092010AD5E3682A
:1023E00062681B0643EA8213A26843EA0273144A36
:1023F000C2F88430124E336843F080633360FFF7D5
:102400008FF9074633681B013FF51EAFFFF788F9C8
:10241000C01B6428F6D975E7FFF782F9C01B642852
:10242000A5D96FE7FFF77CF9801B64287FF616AF0C
:1024300068E7FFF775F9401B64287FF654AF61E742
:102440000038024070B50446002867D0436A002B6C
:102450005DD14268B2F5827F00D0C3610023A362E0
:1024600094F85D3003F0FF0223B9204684F85C2025
:10247000FEF784FF02232268E06884F85D30136869
:10248000B0F5E06F23F0400313604FF0000342D932
:102490001D46B0F5706F18BFA36200F470606368EA
:1024A000A66803F48273A16906F4044633432669DF
:1024B00006F002063343666906F00106334301F471
:1024C0000076090C3343E66901F0040106F0380692
:1024D0003343266A06F080063343A66A06F40056A4
:1024E0003343666B136006F00806636A03F010035B
:1024F0003343034300200B432B435360D36923F43E
:102500000063D3610123206684F85D3070BD002331
:10251000C0E90433A2E74FF48055BCE70120F5E79A
:10252000036A23F0010370B50362036A4268846999
:1025300023F002030D6824F4803424F073042C4348
:102540008D682B430E4DA84202D00E4EB04211D1E1
:1025500023F00803CE68A84243EA060323F00403ED
:1025600002D0084DA84205D122F44072D1E90556A7
:1025700035432A4342604A6884614263036270BD06
:102580000000014000040140036A23F4807370B529
:102590000362036A4268C46923F400730D6824F47B
:1025A000803424F073042C438D6843EA0523114DD5
:1025B000A84203D005F58065A84214D1CD6823F464
:1025C000006343EA05230B4DA84223F4806303D044
:1025D00005F58065A84206D122F44052D1E905569E
:1025E000354342EA051242604A68C461C26303622D
:1025F00070BD00BF00000140036A23F4805330B572
:102600000362026A4468C36922F400520D6823F031
:10261000807323F4E64343EA05238D6842EA0532DA
:10262000084DA84203D005F58065A84204D124F4E2
:1026300080444D6944EA85144460C3614B68036477
:10264000026230BD00000140036A23F4803330B5DC
:102650000362026A4468436D22F400320D6823F479
:10266000803323F070032B438D6842EA0542094D05
:10267000A84203D005F58065A84204D124F4803433
:102680004D6944EA0524446043654B6883650262F2
:1026900030BD00BF00000140036A23F4801330B551
:1026A0000362026A4468436D22F400120D6823F04D
:1026B000807323F4E04343EA05238D6842EA055220
:1026C000084DA84203D005F58065A84204D124F442
:1026D00080244D6944EA8524446043654B68C365A2
:1026E000026230BD0000014070470000304A0368BC
:1026F000904212D0B0F1804F0FD0A2F57C429042B0
:102700000BD002F58062904207D002F580629042C1
:1027100003D002F57842904219D14A6823F0700341
:102720001343234A904229D0B0F1804F26D0A2F51E
:102730007C42904222D002F5806290421ED002F587
:10274000806290421AD002F57842904216D0194A1F
:10275000904213D002F5806290420FD002F5806261
:1027600090420BD0A2F59832904207D002F58062D9
:10277000904203D002F58062904203D123F440736B
:10278000CA6813434A6923F08003134303608B68CC
:10279000C3620B688362064B984203D003F58063E3
:1027A000984201D10B69036301234361704700BF65
:1027B000000001400040014010B5044650B390F8BD
:1027C0003D3003F0FF021BB980F83C20FEF708FE05
:1027D00002232068211D84F83D30FFF787FF012385
:1027E000002084F8483084F83E3084F83F3084F884
:1027F000403084F8413084F8423084F8433084F823
:10280000443084F8453084F8463084F8473084F802
:102810003D3010BD0120FCE710B5044650B390F8E0
:102820003D3003F0FF021BB980F83C20FFF75CFF4E
:1028300002232068211D84F83D30FFF757FF012354
:10284000002084F8483084F83E3084F83F3084F823
:10285000403084F8413084F8423084F8433084F8C2
:10286000443084F8453084F8463084F8473084F8A2
:102870003D3010BD0120FCE7036A23F0100370B562
:102880000362036A4268846923F020030D6824F020
:10289000807424F4E64444EA05248D6843EA051371
:1028A000104DA84203D005F58065A84214D1CD682B
:1028B00023F0800343EA05130A4DA84223F04003A6
:1028C00003D005F58065A84206D122F44062D1E923
:1028D0000556354342EA850242604A688461826354
:1028E000036270BD0000014038B590F83C300446EA
:1028F000012B73D001200C2A84F83C004ED008D85C
:10290000042A2BD0082A39D0BAB1002384F83C30ED
:1029100038BD102A52D0142AF7D12068FFF7BCFE28
:102920000A69436D43F400634365436D23F4806398
:102930004365436D43EA02234EE02068FFF7F0FD54
:102940000A69836943F008038361836923F0040300
:1029500083618369134383610020D6E72068FFF712
:102960008BFF0A69836943F400638361836923F4FD
:1029700080638361836943EA0223ECE72068FFF701
:1029800003FE0A69C36943F00803C361C36923F006
:102990000403C361C3691343C361DDE72068FFF724
:1029A0002BFE0A69C36943F40063C361C36923F45E
:1029B0008063C361C36943EA0223EDE72068FFF740
:1029C00043FE0A69436D43F008034365436D23F0FA
:1029D00004034365436D13434365BDE7022097E756
:1029E0000A4310B5846842EA032224F47F44224358
:1029F000826010BD38B590F83C3004460220012BAF
:102A000000F08C8084F83D000122206884F83C208E
:102A1000434B85682B4083600B68602B4FD032D8C6
:102A2000402B64D016D8202B0DD00AD833F01001DB
:102A300009D0012384F83D30002384F83C3010464F
:102A400038BD302BF5D1826822F07002134343F079
:102A5000070328E0502BECD14A68CD68016A036A6D
:102A600021F00A0123F001030A430362836923F082
:102A7000F00343EA051383610262836823F0700365
:102A800043F057030FE0B3F5805F0DD0B3F5005F5F
:102A90000CD0702BCDD1CB68D1E90121FFF7A0FF7D
:102AA000836843F0770383600022C2E7CB68D1E9F3
:102AB0000121FFF795FF836843F48043F3E7036A3E
:102AC0004D6823F01003C96803628269036A22F427
:102AD000704223F0A00342EA013243EA0513826107
:102AE0000362836823F0700343F06703DBE74A68FF
:102AF000CD68016A036A21F00A0123F001030A4349
:102B00000362836923F0F00343EA051383610262E1
:102B1000836823F0700343F04703C4E702468EE75F
:102B20008800FEFF01F01F01036A10B501248A40EE
:102B30008C4023EA04030362036A1A43026210BD55
:102B4000082908B518D005D859B1042911D090F832
:102B5000433008E00C2912D01029F8D190F8423007
:102B600001E090F83E30013B18BF012353B1012032
:102B700030E090F83F30F6E790F84030F3E790F817
:102B80004130F0E708294FF0020327D006D861B1A1
:102B9000042920D0022380F8433008E00C2920D0FB
:102BA0001029F7D180F8423001E080F83E3000680B
:102BB0000122FFF7B7FF204A904215D01F4B9842E1
:102BC00012D0B0F1804F16D182681D4B1340062BF6
:102BD0002DD1002008BD80F83F30E8E780F8403074
:102BE000E5E780F84130E2E7436C904243F400436C
:102BF0004364E9D0E5E7134B9842E5D003F58063E1
:102C00009842E1D003F580639842DDD003F5784324
:102C10009842D9D003F570539842D5D0A3F5943398
:102C20009842D1D0036843F001030360D1E7B3F5C4
:102C3000803FF7D1CDE700BF000001400004014014
:102C40000700010000040040FFF77ABF70B590F85C
:102C50003C3004460220012B3BD023681D4D84F8F4
:102C60003D00AB425A68986802D01B4EB34203D174
:102C700022F470024E6832430E6822F07002AB42BA
:102C800042EA06025A6019D0B3F1804F16D0134AB7
:102C9000934213D002F5806293420FD002F5806216
:102CA00093420BD002F57842934207D002F570525E
:102CB000934203D0A2F59432934204D1896820F064
:102CC00080020A439A600123002084F83D3084F892
:102CD0003C0070BD000001400004014000040040C1
:102CE00038B50446C0692169A26823680A4361694E
:102CF0001D680A437D4902432940256A0A43E16869
:102D00001A605A6822F440520A435A60A2699968CC
:102D10002A4321F430610A439A60754A934213D1E1
:102D2000744BD3F8903003F00303022B00F0A8801B
:102D3000032B21D0012B40F0BD80B0F5004F40F0B7
:102D40009C80FFF765F892E06B4A93421BD1694B78
:102D5000D3F8903003F00C03082B00F0918009D8D1
:102D6000002B00F0AD80042BE7D001200023C4E944
:102D70001A3338BD0C2BF8D1B0F5004F00F0848029
:102D80004FF40040A3E05D4A93420ED1594BD3F873
:102D9000903003F03003202B72D004D8002B00F0C9
:102DA0008F80102BE0E7302BE5E7554A93420DD199
:102DB000504BD3F8903003F0C003802B60D003D881
:102DC000002B7DD0402BCFE7C02BD4E74D4A934258
:102DD00010D1484BD3F8903003F44073B3F5007F23
:102DE0004ED004D8002B6BD0B3F5807FBCE7B3F591
:102DF000407FC0E7444A934210D13E4BD3F8903015
:102E000003F44063B3F5006F3AD004D8002B51D0DF
:102E1000B3F5806FA8E7B3F5406FACE73B4A934248
:102E200010D1344BD3F8903003F44053B3F5005F26
:102E300026D004D8002B43D0B3F5805F94E7B3F5D8
:102E4000405F98E7324A93428FD12A4BD3F89030B3
:102E500003F44043B3F5004F12D003D883B3B3F566
:102E6000804F81E7B3F5404F85E7FFF79DF858B9EC
:102E700000207BE7FFF7A8F827E0FEF7C9FF24E072
:102E8000B0F5004F234822D16268530803EB40039A
:102E9000B3FBF2F34FF6EF72A3F1100191423FF64C
:102EA00064AF23F00F02C3F34203216892B21343CD
:102EB000CB60DDE7B0F5004FDCD1FFF785F8D6E752
:102EC000B0F5004FD1D0FFF76FF80028D0D062687E
:102ED00000EB5203B3FBF2F34FF6EF72A3F11001D4
:102EE00091423FF642AF2268D360C1E7F369FFEF3A
:102EF00000100140003802400044004000480040FB
:102F0000004C004000500040001401400078004098
:102F1000007C00400024F400436ADA0710B506D5AF
:102F20000168846A4A6822F4003222434A609C079E
:102F300006D50168C46A4A6822F4803222434A6096
:102F4000590706D50168046B4A6822F4802222439F
:102F50004A601A0706D50168446B4A6822F40042A9
:102F600022434A60DC0606D50168846B8A6822F435
:102F7000805222438A60990606D50168C46B8A682C
:102F800022F4005222438A605A0610D50168046C6C
:102F90004A68B4F5801F22F4801242EA04024A60B3
:102FA00005D14A68446C22F4C00222434A601B06E1
:102FB00006D50268816C536823F400230B435360E9
:102FC00010BD2DE9F843DDF8209005460F46164662
:102FD00098462A68D36937EA03030CBF012300230C
:102FE000B34201D0002028E0B9F1FF3FF2D0FEF754
:102FF00097FBA0EB08002C68484502D8B9F1000FF8
:103000001DD154E8003F23F4D07344E80032002A75
:10301000F7D104F1080353E8003F23F0010304F162
:10302000080141E80032002AF3D12023EB67C5F8FC
:1030300080300023032085F87830BDE8F8832368CA
:103040005A07C6D5E3691B05C3D54FF40063236255
:1030500054E8003F23F4D07344E80032002AF7D14B
:1030600004F1080353E8003F23F0010304F10801D1
:1030700041E80032002AF3D12023EB67C5F8803005
:10308000C5F88430D5E72DE9F7439846C36F044669
:103090000E46202B174641D1002941D0002A3FD0AF
:1030A00021230025C0F88450C367FEF739FBA368CD
:1030B0008146A4F85070B3F5805FA4F8527003D134
:1030C00023690BB935461E46B4F852204B46CDF85D
:1030D000008092B23AB940212046FFF772FF40B912
:1030E0002023E36706E0002280212046FFF769FFE6
:1030F00018B1032003B0BDE8F08322685EB935F84B
:10310000023BC3F308039362B4F85220013A92B22F
:10311000A4F85220D8E716F8013BF4E70220E9E7CB
:103120000120E7E72DE9F7439846D0F880300446C0
:103130000F46202B164658D1002958D0002A56D0C9
:1031400022230025C0F88450C0F880300566FEF7C1
:10315000E7FAA3688146A4F85860B3F5805FA4F845
:103160005A600FD12369D3B1FF263246A4F85C2000
:10317000B4F85A0080B2F8B92023C4F8803003B004
:10318000BDE8F08323B9256995B9FF221646EDE71E
:10319000B3F1805F09D1236953B13F22F6E740F2D2
:1031A000FF163D4600273246E0E72A462E46DDE779
:1031B0007F221D461646D9E74B4600222021204695
:1031C000CDF80080FFF7FDFE98B923685B6A3340B5
:1031D00047B925F8023BB4F85A30013B9BB2A4F83A
:1031E0005A30C5E707F8013BF5E70220C7E70120A1
:1031F000C5E70320C3E737B500250446C0F884506F
:10320000FEF78EFA22680346126812070AD40020DD
:10321000202384F87800E367C4F880302066606675
:1032200003B030BD6FF07E424FF400112046009293
:103230002A46FFF7C6FE0028E9D00320F0E710B5C4
:10324000044640B3C36F1BB980F87830FEF730F9FD
:10325000226824232046E367136823F001031360E8
:10326000FFF73EFD012816D0636A13B12046FFF731
:1032700053FE236820465A6822F490425A609A68A6
:1032800022F02A029A601A6842F00102BDE810405A
:103290001A60FFF7B0BF012010BD2DE9FF4757ECC2
:1032A000106B002F0C4619463B46BBBF07F100438D
:1032B0001F4600232D230B700D9BDDF830A0914697
:1032C00023F02008BCBF32461646B8F1460F05D0A1
:1032D000B8F1450F00D10134022100E0032103AB16
:1032E000019302AB009347EC106B5346224600F06B
:1032F00067FEB8F1470F054619D119F0010F0ED03E
:1033000000EB04090022002330463946FDF704FC97
:1033100008B1CDF80C903022039B4B451ED3039B84
:103320000E9A5B1B2846136004B0BDE8F087B8F125
:10333000460F00EB0409E5D10378302B0AD10022B7
:10334000002330463946FDF7E7FB18B9C4F1010404
:10335000CAF80040DAF800309944D3E7591C0391C9
:103360001A70D9E7F7B50029BABF49422D232B239C
:1033700009290270437029DD0DF107031D460A2754
:103380001A46B1FBF7F607FB1614303402F8014C6D
:103390000C46632C03F1FF333146F1DC3031941ECF
:1033A00003F8011C411C2346AB420AD30DF109036B
:1033B0009B1AAC4288BF002302330344181A03B09F
:1033C000F0BD13F8016B01F8016FEDE730233031E8
:1033D0008370C170031DF1E72DE9F04F8DB00C46ED
:1033E000DDF8588016461F46054600F0E7FC0368E6
:1033F00004931846FCF764FF00230A93D8F80030C2
:103400000590073323F0070303F1080294F818A08E
:10341000D4F800B0C8F80020D3E9008929F00043AF
:103420000793CDF81880C4E91289DDE906019C4BA9
:103430004FF0FF32FDF7A2FB70BBDDE90601984BB0
:103440004FF0FF32FDF77CFB30BB002200234046EB
:103450004946FDF76BFB10B12D2384F84330914AA8
:10346000914BBAF1470F94BF9046984603232361CE
:103470002BF0040323604FF00009009733460BAA9A
:103480002146284600F0D2F9013040F08D804FF0FF
:10349000FF300DB0BDE8F08F42464B4640464946EE
:1034A000FDF76CFB40B14B46002BBCBF2D2384F8CD
:1034B00043307E4A7E4BD4E763680AF0DF0206920F
:1034C0005A1C3BD1062363604BF4806200232260C8
:1034D00003930AABCDE901A309AB0093616849EC02
:1034E000108B0DF123032846FFF7D7FE069B0999A1
:1034F000472B804629D1C81C02DB6368994241DD15
:10350000AAF1020A5FFA8AFA0139524604F1500020
:103510000991FFF727FF0A9A1318012A81462361B0
:1035200002DC2268D20701D5013323619DF82330E4
:10353000002BA2D02D2384F843309EE7069A472A19
:10354000C2D1002BC0D10123BDE7BAF1650FDBD991
:10355000BAF1660F18D1002963680BDD216113B938
:103560002268D00702D501330B442361A1654FF0D7
:103570000009DBE713B92268D20701D50233F4E76B
:103580000123F2E74FF0670A0A9B994205DB2368A3
:103590002161D807EAD54B1CE7E70029D4BFC1F168
:1035A000020201221344E0E723685A0507D4236985
:1035B000424631462846B84701302BD167E7BAF179
:1035C000650F40F2DD80D4E9120100220023FDF7EF
:1035D000A3FA002833D0374A012331462846B8479A
:1035E00001303FF454AFDDE90938434502DB23687D
:1035F000D8070FD5DDE9042331462846B847013006
:103600003FF445AF4FF0000908F1FF3804F11A0A02
:10361000C84509DC23689B0700F10381E0680B9B28
:103620009842B8BF184634E701235246314628462F
:10363000B84701303FF42BAF09F10109E8E7099BD6
:10364000002B39DC1B4A012331462846B84701309C
:103650003FF41DAFDDE9093959EA030302D12368BC
:10366000D907D7D5DDE9042331462846B8470130CC
:103670003FF40DAF4FF0000A04F11A0B099B5B42B7
:10368000534501DC4B4693E701235A463146284611
:10369000B84701303FF4FBAE0AF1010AEEE700BF84
:1036A000FFFFEF7F92650008966500089A650008A5
:1036B0009E650008C2670008A36DDDF828A0534589
:1036C000A8BF5346002B994636DC4FF0000B29EA81
:1036D000E97904F11A02A36D0693A3EB09035B4594
:1036E00031DC099B9A453ADC2368DA0737D4099B19
:1036F000AAEB0309069BAAEB03039945A8BF9946C9
:10370000B9F1000F33DC4FF0000829EAE97904F140
:103710001A0B099BAAEB0303A3EB090343457FF7AD
:1037200079AF01235A4631462846B84701303FF465
:10373000AEAE08F10108ECE7424631462846B847EC
:103740000130C2D1A3E60123314628460692B8478C
:1037500001303FF49CAE069A0BF1010BBBE7DDE9AB
:10376000042331462846B8470130C0D18FE6069A77
:103770004B46424431462846B8470130C3D186E61D
:10378000DDF828A0BAF1010F01DCDB0736D50123F3
:10379000424631462846B84701303FF478AEDDE96D
:1037A000042331462846B84701303FF470AED4E9CF
:1037B0001201002200230AF1FF3AFDF7ADF9C0B96A
:1037C000534608F1010231462846B84701300CD172
:1037D0005DE601235A4631462846B84701303FF49A
:1037E00056AE08F10108D045F3DB4B4604F1500218
:1037F000DFE64FF0000804F11A0BF4E7012342461C
:10380000E1E701234A4631462846B84701303FF4F4
:103810003EAE08F10108E3680B995B1A4345F0DC02
:10382000FCE64FF0000804F11909F4E72DE9F04730
:10383000164698468A680B69DDF820909342B8BF17
:103840001346336091F8432007460C460AB1013312
:1038500033602368990642BF3368023333602568BA
:1038600015F0060506D104F1190AE36832689B1ABF
:10387000AB4226DC94F843302268003B18BF01239A
:1038800092062BD404F1430241463846C847013022
:103890001ED02368226903F00603042B02BFE568EB
:1038A0003368ED1AA3680CBF25EAE575002593423D
:1038B000C4BF9B1AED1800261A34B5421AD1002055
:1038C00008E00123524641463846C847013003D13B
:1038D0004FF0FF30BDE8F0870135C6E7E1185A1C0C
:1038E000302081F84300224494F8451082F84310B8
:1038F0000233C7E70123224641463846C847013014
:10390000E6D00136D9E700002DE9FF470F7E0C9E77
:10391000782F914680460C469A4601F1430207D81B
:10392000622F0AD8002F00F0D280582F00F0B98003
:1039300004F1420684F842703AE0A7F16303152BC4
:10394000F6D801A151F823F0A1390008B5390008D3
:10395000313900083139000831390008313900089F
:10396000B53900083139000831390008313900080B
:1039700031390008B53A0008DF3900086F3A00080D
:103980003139000831390008D73A000831390008C8
:10399000DF3900083139000831390008773A00086A
:1039A00033681A1D1B68326004F1420684F8423005
:1039B00001239DE033682068191D3160060601D59A
:1039C0001D6803E04506FBD5B3F90050002D03DA6E
:1039D0002D236D4284F8433059480A2311E02168B1
:1039E0003368080653F8045B02D4490648BFADB2F9
:1039F0006F2F5348336014BF0A230823002184F833
:103A000043106668A660002EA2BF216821F0040161
:103A100021600DB9002E4BD01646B5FBF3F103FB28
:103A20001157C75D06F8017D2F46BB420D46F4D9FC
:103A3000082B0BD12368DF0708D5236961689942F9
:103A4000DEBF302306F8013C06F1FF36921B2261EF
:103A5000CDF800A04B4603AA21464046FFF7E6FEFC
:103A600001304AD14FF0FF3004B0BDE8F087236841
:103A700043F0200323603348782784F84570236897
:103A800031681F0651F8045B02D45F0648BFADB22F
:103A90003160D90744BF43F0200323601DB11023D8
:103AA000ACE72748E9E7236823F020032360F6E723
:103AB0001646BDE7336825686169181D30602E061B
:103AC0001B6801D5196002E06806FBD51980002348
:103AD00023611646BCE733681A1D32601E686268AF
:103AE00000213046FCF79CFB08B1801B60606368D6
:103AF0002361002384F84330AAE72369324649460C
:103B00004046D0470130ADD023689B0713D4E0680E
:103B1000039B9842B8BF1846A6E7012332464946A0
:103B20004046D04701309DD00135E36803995B1AC8
:103B3000AB42F2DCEBE7002504F11906F5E700BF24
:103B4000A2650008B3650008002310B50446C0E96B
:103B50000033C0E90433836081814366C28183619D
:103B6000194608225C3000F020F90D4B63620D4BC2
:103B7000A3620D4BE3620D4B23630D4B24629C4209
:103B800006D003F16802944202D0D0339C4205D1A2
:103B900004F15800BDE8104000F084B910BD00BF2A
:103BA000213D0008473D00087F3D0008A33D000877
:103BB00028040020024A0349034800F069B800BF06
:103BC0000C000020895B00081C00002041680C4BA1
:103BD000994210B5044601D001F0D6FFA168094B07
:103BE000994202D0204601F0CFFFE168064B99428E
:103BF00004D02046BDE8104001F0C6BF10BD00BF94
:103C00002804002090040020F804002010B50B4B7D
:103C10000B4C0C4A1A60204600220421FFF794FF47
:103C200004F1680001220921FFF78EFF04F1D000A2
:103C30000222BDE810401221FFF786BF6005002078
:103C400028040020B53B0008014800F02CB900BF53
:103C500069050020014800F027B900BF6905002070
:103C600010B50446FFF7F0FF236A1BB1BDE8104012
:103C7000FFF7F0BF044B2362044B1B68002BF5D108
:103C8000FFF7C4FFF2E700BFCD3B0008600500204E
:103C90002DE9F8430746884614460026D4E90195E5
:103CA000B9F1010905D52468002CF7D13046BDE8EB
:103CB000F883AB89012B07D9B5F90E30013303D056
:103CC00029463846C04706436835E9E70EB430B5A3
:103CD0009CB01FAC4FF4017254F8045BADF8142093
:103CE00002900690FCF7ECFA0B4B039007900B93B5
:103CF0000A48019400230F9314934FF6FF73ADF815
:103D000016302A46234602A9006801F0F7FB1CB0D2
:103D1000BDE8304003B07047433D00081800002064
:103D200010B50C46B1F90E1000F06EF80028ABBFCC
:103D3000636DA3891B1823F48053ACBF6365A38113
:103D400010BD002070472DE9F0411F468B89DB052F
:103D500005460C46164605D5B1F90E100223002281
:103D600000F040F8A389B4F90E1023F48053A38126
:103D700032463B462846BDE8F04100F057B810B542
:103D80000C46B1F90E1000F02DF8431CA38915BFA5
:103D9000606523F4805343F48053A38118BFA3814B
:103DA00010BDB1F90E1000F00DB802440346934265
:103DB00000D1704703F8011BF9E700000048704785
:103DC0005801002038B5064D0023044608462B60F4
:103DD000FDF70AFC431C02D12B6803B1236038BDF8
:103DE0006405002038B5074D0446084611460022F8
:103DF0002A601A46FDF702FC431C02D12B6803B16E
:103E0000236038BD6405002038B5074D04460846D8
:103E1000114600222A601A46FDF7D8FB431C02D146
:103E20002B6803B1236038BD6405002038B5074D09
:103E300004460846114600222A601A46FDF754F847
:103E4000431C02D12B6803B1236038BD64050020F8
:103E5000014B1868704700BF1800002070B50D4D69
:103E60000D4C641BA4100026A64209D10B4D0C4C2E
:103E700002F06EFB641BA4100026A64205D170BDA3
:103E800055F8043B98470136EEE755F8043B984750
:103E90000136F2E724690008246900082469000853
:103EA000286900087047704770472DE9F74F03698C
:103EB0000C69A34207467EDB013C01F11408A30014
:103EC00000F11405009305EB8403019358F82430A6
:103ED00055F8242001339A4208EB8409B2FBF3F62B
:103EE0002ED34FF0000AC446AE46D3465CF8043BDE
:103EF00098B206FB00A0020C1B0C06FB0323DEF8A5
:103F0000002080B292B2121A5A44DEF800004FEA42
:103F1000134A9BB2C3EB224303EB104392B242EA33
:103F20000342E1454EF8042B4FEA234BDED2009BBF
:103F3000EB582BB9019B043B9D421A462FD33C61A1
:103F4000384601F07BF9002825DB2946002058F887
:103F5000042BD1F800C01FFA82FE1FFA8CF3A3EBEA
:103F60000E030344120CC2EB234202EB1C429BB231
:103F700043EA0243C14541F8043B4FEA2240E6D2FE
:103F800055F8242005EB840322B9043B9D421A46D0
:103F90000BD33C610136304603B0BDE8F08F1268A8
:103FA000043B002ACBD1013CC6E71268043B002A3F
:103FB000EFD1013CEAE70020EEE70000000000003E
:103FC0002DE9F04FC76999B08DED020B55EC104B00
:103FD000229E099183460E9213937FB9102000F020
:103FE000FDFD0246CBF81C0020B9A74BEF21A748E6
:103FF00001F084FEC0E901770760C760DBF81C3080
:10400000196859B15A684A60012393408B60584639
:1040100000F0DAFEDBF81C3000221A602B1EB9BF5C
:1040200023F00043039300233360039F984BBCBFEE
:1040300001223260BB4312D1139A42F20F73136014
:10404000C7F31303234300F04D85239BDFF854A2ED
:10405000002B00F04F850AF1030300F049BD9DEDF0
:10406000027B002251EC170B00238DED0C7BFCF73B
:1040700053FD804658B1139A01231360239B13B15B
:10408000239A844B1360DFF820A200F033BD9DED2E
:104090000C0B16AA17A9584601F080F9C7F30A5667
:1040A0008146002E77D00D9BCDF85080C3F31303CB
:1040B000DDE90C0143F07F5343F44013A6F2FF36D1
:1040C00019460022744BFCF707F969A3D3E90023D2
:1040D000FCF7BAFA68A3D3E90023FCF7FFF804461B
:1040E00030460D46FCF746FA65A3D3E90023FCF7FA
:1040F000ABFA02460B4620462946FCF7EFF8044689
:104100000D46FCF751FD00220746002320462946B4
:10411000FCF70CFD40B13846FCF72CFA22462B4642
:10412000FCF7FAFC00B9013F162F51D85B4B03EBAB
:10413000C703D3E90023DDE90C01FCF7F7FC0028F5
:1041400048D0013F00231293169B9B1B5A1E44BF6D
:10415000C3F101080023089254BF4FF000080893F0
:10416000002F39DB089B0F973B44089300230A93E9
:10417000099B092B64D8052BC4BF043B0993099BF9
:10418000A3F10203CCBF00240124032B63D8DFE892
:1041900003F02A373555DDE916631E4406F2324333
:1041A000202BC1BFC3F140039F4006F2124324FA03
:1041B00003F3D6BFC3F1200347EA030004FA03F078
:1041C000FCF7C8F90122A1F1F873013E149277E7D8
:1041D0000123B8E71290B7E77B420A930023A8EBCC
:1041E00007080F93C4E700230B930E9B002B35DCCD
:1041F0000123009307931A460E920BE00123F3E785
:1042000000230B930E9BFB1800930133012B0793A4
:10421000B8BF0123DBF81C000021042202F11405C1
:104220009D421FD94160584600F08EFD824600280D
:104230003CD11B4B024640F2AF11D8E60123E0E728
:104240000124002309930B944FF0FF33009307934D
:1042500000221223D0E701230B93F5E70E9B009376
:104260000793D7E701315200D8E700BFAFF30080D2
:1042700061436F63A787D23FB3C8608B288AC63F6C
:10428000FB799F501344D33FD1650008E8650008CF
:104290000000F07FC36700080000F83FE0660008F8
:1042A00040660008CD650008C2670008DBF81C30D6
:1042B0001860079B0E2B00F2A480002C00F0A18058
:1042C000002F33DDAD4B07F00F0203EBC20393ED7C
:1042D000007BF8058DED047B4FEA271416D5A84B1B
:1042E000DDE90C01D3E90823FCF7D8FACDE9020196
:1042F00004F00F040326A24D54B9DDE90423DDE9DF
:104300000201FCF7CBFACDE9020128E00226F2E730
:10431000E10708D5DDE90401D5E90023FCF794F9AC
:10432000CDE90401013664100835E5E700F0D280DC
:104330007C42924B924D04F00F0203EBC203D3E98F
:104340000023DDE90C01FCF77FF9CDE9020124111E
:1043500000230226002C40F0B280002BD3D1129B08
:10436000DDE90245002B00F0B780864B0022204695
:104370002946FCF7DBFB002800F0AE80079B002BF2
:1043800000F0AA80009B002B37DD7B1E04932046A3
:104390007D4B00222946FCF757F9CDE90201009C2C
:1043A00001363046FCF7E6F8DDE90223FCF74CF96C
:1043B000764B0022FBF792FF0546A1F15076002CC8
:1043C00040F08D80DDE90201714B0022FBF784FF94
:1043D00002460B46CDE902232A463346FCF7C4FBCE
:1043E000002840F08B82DDE902012A4606F10043F5
:1043F000FCF79CFB002840F02881DDE90C34CDE976
:104400000234179B002BC0F25A810E2F00F3578104
:104410005A4B03EBC70393ED007B0E9B002B8DEDF6
:10442000007B03DA079B002B40F30181DDE90245A5
:104430005646DDE9002320462946FCF72FFAFCF713
:10444000B3FB8046FCF796F8DDE90023FCF7FCF8A7
:1044500002460B462046294608F13004FBF73CFF94
:1044600006F8014B079DA6EB0A04A54202460B463F
:1044700040F01781FBF732FFDDE9002304460D46CB
:10448000FCF772FB002840F0F980DDE900232046AC
:104490002946FCF741FB18B118F0010F40F0EE80FF
:1044A0004946584600F090FC00233370139B0137B7
:1044B0001F60239B002B00F01D831E601AE3E207A0
:1044C00005D5D5E90023FCF7BFF8013601236410B8
:1044D00008353FE7022642E7079C049761E7274B30
:1044E0000B9903EBC40353E902235444002953D02E
:1044F00028490020FCF7D2F933462A46FBF7ECFEA8
:10450000CDE910015646DDE90201FCF74DFB0546F9
:10451000FCF730F802460B46DDE90201FBF7DCFE52
:10452000303502460B46CDE9022306F8015BDDE992
:104530001023FCF7FBFA002871D1DDE902231149B1
:104540000020FBF7C9FEDDE91023FCF7EFFA002895
:1045500040F09580A6423FF450AFDDE910010A4BD0
:104560000022FCF771F8084BCDE910010022DDE9CB
:104570000201FCF769F8CDE90201C4E7E066000832
:10458000B86600080000F03F0000244000001C4016
:10459000000014400000E03F31462846FCF754F884
:1045A000CDE9100115945646DDE90201FCF7FCFA4D
:1045B0000546FBF7DFFF02460B46DDE90201FBF78C
:1045C0008BFE303506F8015B02460B46A642CDE96C
:1045D00002234FF0000224D1AC4BDDE91001FBF7C0
:1045E0007DFE02460B46DDE90201FCF7BDFA00281C
:1045F00045D1DDE91023A5490020FBF76DFE0246F9
:104600000B46DDE90201FCF791FA00283FF4F5AE14
:10461000159E731E159316F8013C302BF8D0049F9D
:104620003EE79B4BFCF710F8CDE90201BCE70CD14B
:10463000984B0022DDE90001FCF706F8DDE90223D2
:10464000FCF788FA002800F05781002425460E9BCD
:10465000DB430493564600272146584600F0B4FB3E
:10466000002DDCD02FB1AF4203D03946584600F0C0
:10467000ABFB2946584600F0A7FBD0E7049733462A
:104680001E4613F8012D392A07D19A45F8D1049A0C
:104690000132049230228AF800201A7801321A700E
:1046A000BDE77B4B0022FBF7CFFF0022002304462F
:1046B0000D46FCF731FA00283FF4BBAEF0E60B9A4A
:1046C000002A00F0DB80099A012A00F3BF80149AC7
:1046D000002A00F0B78003F233430A9C4646089A4A
:1046E00001211A4458469844089200F021FC0546DE
:1046F0005EB1089B002B08DDB342089AA8BF334681
:10470000A8EB0308F61AD31A08930A9BF3B10B9B84
:10471000002B00F0B7808CB129462246584600F0A5
:10472000C7FC4A4601460546584600F017FC494674
:104730000490584600F048FB049B99460A9B1A1BBC
:1047400004D04946584600F0B3FC81460121584642
:1047500000F0EEFB0F9B0446002B00F0CF811A46C1
:104760000146584600F0A4FC099B012B044600F3C7
:104770009580029B002B40F08780039BC3F31303BB
:10478000002B40F08980039B23F000431B0D1B0589
:104790002BB1089B0133089308F1010801230A9308
:1047A0000F9B002B00F0B081236904EB8303186991
:1047B00000F072FBC0F12000089B184410F01F00AD
:1047C00077D0C0F12003042B6BDD089BC0F11C00E7
:1047D0000344804406440893B8F1000F05DD4946C0
:1047E0004246584600F0BEFC8146089B002B05DD82
:1047F00021461A46584600F0B5FC0446129B002B91
:1048000059D02146484600F019FD002853DA7B1E96
:104810000493494600230A22584600F0F7FA0B9BFE
:104820008146002B00F07281002329460A22584657
:1048300000F0ECFA009B002B054667DC099B022B7D
:1048400041DC63E0169BC3F1360346E7079B5C1E21
:104850000A9BA342BFBF0A9B0F9A0A94E31AB4BFF4
:10486000D2181C1B079BBCBF0F920024002BB5BFA6
:10487000A8EB0306079B0023464630E70A9C0B9DE6
:10488000464635E70A9A5CE7002388E70000E03FE8
:104890000000244000001440029B80E700230A939C
:1048A00082E799D0089A1C331A4498441E4408920F
:1048B00092E70346F6E7079B0497002B20DC009362
:1048C000099B022B1EDD009B002B7FF4C0AE21460E
:1048D0000522584600F09AFA01460446484600F080
:1048E000ADFC00287FF7B3AE5646312306F8013BF6
:1048F000049B01330493AEE6079C04972546F3E737
:10490000079B00930B9B002B00F00481002E05DD1C
:1049100029463246584600F025FC05460A9B002BE6
:104920005AD06968584600F00FFA064628B9844BF9
:10493000024640F2EF21FFF75ABB2A690232920089
:1049400005F10C010C3001F0CBF90122314658463B
:1049500000F008FC0AF101030793009B53440B93FA
:10496000029B03F001032F460A930546079B21464D
:10497000013B48460093FFF798FA3946029000F150
:104980003008484600F05AFC2A460890214658460E
:1049900000F070FCC268064602BB0146484600F0C3
:1049A0004DFC0246314658460E9200F00DFA099B26
:1049B0000E9A079E43EA02010A9B194310D1B8F1EF
:1049C000390F29D0089B002B02DD029B03F131082F
:1049D000009B83F800803FE62846BBE70122E1E721
:1049E000089B002B04DB09990B430A990B4320D148
:1049F000002AEDDD49460122584600F0B3FB21466E
:104A0000814600F01BFC002803DCE1D118F0010F07
:104A1000DED0B8F1390FD8D1009A3923137033465C
:104A20001E46013B16F8012C392A52D001321A7069
:104A300012E6002A07DDB8F1390FEDD0009A08F12F
:104A40000103137008E6079B079A03F8018C0B9B80
:104A5000934228D0494600230A22584600F0D6F94E
:104A6000AF4281464FF000034FF00A0239465846E4
:104A700007D100F0CBF907460546079B01330793A2
:104A800074E700F0C3F92946074600230A22584676
:104A900000F0BCF90546F0E7009B002BCCBF1E469A
:104AA00001265644002749460122584600F05AFB89
:104AB0002146814600F0C2FB0028B0DC02D118F08C
:104AC000010FACD133461E4613F8012D302AFAD01F
:104AD000C2E59A45A4D1049B0133049331238AF89B
:104AE0000030B9E5239BDFF85CA01BB10AF1080395
:104AF000239A1360504619B0BDE8F08F099B012B33
:104B00007FF737AE0F9B0A93012055E6009B002BE1
:104B10007FF7D6AE564621464846FFF7C6F900F164
:104B2000300806F8018B009BA6EB0A029342B3DD26
:104B3000494600230A22584600F068F98146EAE710
:104B400040660008C465000838B50546002941D014
:104B500051F8043C0C1F002BB8BFE41800F0E8F833
:104B60001D4A136833B9636014602846BDE83840B5
:104B700000F0E4B8A34208D9206821188B4201BF95
:104B800019685B6809182160EDE71A465B680BB18C
:104B9000A342FAD911685018A0420BD120680144F1
:104BA000501883421160E0D118685B685360084474
:104BB0001060DAE702D90C232B60D6E720682118B1
:104BC0008B4204BF19685B68636004BF09182160E9
:104BD0005460CAE738BD00BF70050020024B014693
:104BE000186800F025B800BF1800002070B50F4EFF
:104BF0000C463168054611B901F062F83060214673
:104C0000284601F05DF8431C03D14FF0FF342046E5
:104C100070BDC41C24F00304A042F8D0211A284619
:104C200001F04EF80130F2D1EFE700BF6C05002033
:104C30002DE9F843CD1C25F0030508350C2D38BFB0
:104C40000C25002D064601DBA94204D90C23336054
:104C50000020BDE8F883DFF8D48000F069F8D8F8C8
:104C600000301C4644BB29463046FFF7BFFF431CBB
:104C7000044658D1D8F800402746002F43D1002CD5
:104C80004BD023683946304604EB030901F018F88D
:104C9000814542D121686D1A29463046FFF7A6FFAB
:104CA00001303AD023682B442360D8F800305A688A
:104CB00062BBC8F800700FE02268521B20D40B2A98
:104CC00017D96119A342256018BF5960636808BFEE
:104CD000C8F8001062514B60304600F02FF804F124
:104CE0000B00231D20F00700C21A1CBF1B1AA35083
:104CF000AFE76268A3420CBFC8F800205A60EBE738
:104D000023466468AEE73C467F68B6E71A465B68B0
:104D1000A342FBD100235360DEE70C23336030460F
:104D200000F00CF894E70560D6E700BF700500209E
:104D30000148FFF7B8B800BF680500200148FFF739
:104D4000B3B800BF6805002070B5C66904460D46BB
:104D500076B91020FFF742FF0246E06120B9184BF8
:104D600018486B2100F0CAFFC0E901660660C66002
:104D7000E669F36883B1E369DB6853F82500B8B9E5
:104D8000012101FA05F6721D9200204600F0D4FFC1
:104D900060B1C0E901560EE021220421204600F056
:104DA000CBFFE369F060DB68002BE4D1002070BD2D
:104DB000026843F825200023C0E90333F7E700BF6A
:104DC000D16500085166000870B5C66905460C46F5
:104DD00076B91020FFF702FF0246E86120B9094BBF
:104DE00009488F2100F08AFFC0E901660660C660AD
:104DF0003CB1EB696268DB6853F82210216043F82C
:104E0000224070BDD1650008516600082DE9F041CF
:104E10000D6907460C461E4601F1140C0020DCF813
:104E2000003099B202FB01611E0C0B0C02FB063331
:104E300089B2013001EB034185424CF8041B4FEA73
:104E40001346ECDC0EB3A368AB4219DC616838464C
:104E50000131FFF779FF804628B902460C4B0D4817
:104E6000BA2100F04BFF2269023204F10C019200DA
:104E70000C3000F035FF21463846FFF7A5FF4446C9
:104E800004EB850301355E6125612046BDE8F081B4
:104E90004066000851660008B0F5803F034636BF03
:104EA000030400201020B3F1807F3CBF1B020830B8
:104EB000B3F1805F3CBF1B010430B3F1804F3CBFB6
:104EC0009B000230002B05DB13F0804F00F1010046
:104ED00008BF202070470368024613F007000BD07C
:104EE000D90721D4980749BF5B089B0801201360AC
:104EF0005CBF13600220704799B209B91B0C1020E7
:104F0000D9B209B908301B0A190704BF1B090430BC
:104F1000990704BF9B080230D90703D45B0800F14E
:104F2000010003D0136070470020704720207047B5
:104F300010B50C460121FFF707FF024628B9054BC3
:104F4000054840F2451100F0D9FE01234461036198
:104F500010BD00BF40660008516600082DE9F04F03
:104F600014460A6923699A42A8BF23460F46A4BF84
:104F70000C461F46D4F810A0D7F81090A3686168BB
:104F80000AEB0906B34285B0B8BF0131FFF7DCFE7A
:104F900030B90246444B45484FF4B17100F0AEFEC3
:104FA00000F1140505EB86082B460022434521D36A
:104FB00007F1140104F1140202EB8A0201EB8903E8
:104FC0000293131B153B23F00303043304F115076D
:104FD000BA4238BF04230193029B03918B420CD841
:104FE000002E03DD58F8043D002B5BD0066105B0B0
:104FF000BDE8F08F43F8042BD8E7B1F800A0BAF170
:10500000000F24D004F1140EA9464FF0000C5EF8F6
:10501000047BD9F800301FFA87FB9BB20AFB0B33E5
:105020004FEA174BD9F8007063444FEA174C0AFB5C
:105030000BC707EB13479BB243EA0743724549F896
:10504000043B4FEA174CE2D8019B45F803C0039B91
:10505000B3F802900431B9F1000F21D02B6804F1AC
:10506000140CAE464FF0000ABCF800B0BEF8027057
:1050700009FB0B7757449BB243EA07434EF8043BC6
:105080005CF8043B4FEA134ABEF8003009FB0A33D0
:1050900003EB174362454FEA134AE5D8019FEB51F2
:1050A000043599E7013E9BE7406600085166000819
:1050B0002DE9F843154612F0030207460E4607D0C5
:1050C000254C013A002354F82220FFF79FFE0646A4
:1050D000AD103DD0FC697CB91020FFF77FFD024682
:1050E000F86128B91D4B1E4840F2B31100F006FECE
:1050F000C0E901440460C460D7F81C80D8F80840B7
:105100004CB940F271213846FFF712FF0023C8F86E
:105110000800044603604FF00009EB070AD531464A
:1051200022463846FFF71AFF314680463846FFF7D9
:105130004BFE46466D100BD0206838B922462146FA
:105140003846FFF70BFF2060C0F800900446E4E704
:105150003046BDE8F88300BFAC660008D1650008A2
:10516000516600082DE9F0470C464968236903EBB6
:105170006218A368074691464FEA621A08F10106D1
:10518000B3420BDB3846FFF7DFFD054648B9024660
:10519000284B29484FF4EF7100F0B0FD01315B005E
:1051A000EEE7002300F1140100F110021846534508
:1051B00033DB20692AEAEA7A04F1140319F01F09A3
:1051C00001EB8A0103EB800C2BD0C9F1200E8A463B
:1051D0000022186800FA09F010434AF8040B53F84B
:1051E000042B9C4522FA0EF2F3D8ACEB0403153BDA
:1051F00023F00303043304F11500844538BF04236E
:10520000CA500AB108F10206013E38462E61214615
:10521000FFF7DAFD2846BDE8F08742F8040F0133B6
:10522000C5E7043953F8042B41F8042F9C45F9D8FD
:10523000EAE700BF40660008516600080A690346B5
:105240000069801A30B50ED11433143103EB820497
:1052500001EB820154F8045D51F8042D954203D00E
:1052600005D24FF0FF3030BDA342F3D3FBE701205E
:10527000F9E700002DE9F74F8946064611464846F2
:105280001446FFF7DBFF051E12D129463046FFF713
:105290005BFD024628B93F4B40F237213E4800F003
:1052A0002DFD0123C0E90435104603B0BDE8F08FA1
:1052B000BCBF4B46A1463046D9F80410BABF1C46C5
:1052C00001250025FFF740FD024618B9314B40F299
:1052D0004521E3E7D9F810702669C56009F110038C
:1052E00009F1140504F1140E00F1140B05EB870805
:1052F0000EEB86060193D9464FF0000C019B5EF839
:10530000040B53F804AF01931FFA8AF3194683B2D2
:10531000CB1A000C6344C0EB1A4000EB23409BB255
:1053200043EA0043764549F8043B4FEA204CE5D870
:10533000331B153B23F0030315340433A64238BF57
:1053400004231D445B441E462C4644450ED308F1FD
:105350000301491B21F00301033DA84538BF00218B
:105360000B4453F8041D91B117619DE754F8041BD9
:10537000E646080C1CFA81FC714400EB2C4089B213
:1053800041EA004146F8041B4FEA204CDDE7013FAB
:10539000E7E700BF40660008516600082DE9F743C3
:1053A0000F46012159EC108B1646FFF7CDFC044641
:1053B00030B90246234B244840F20F3100F09EFCE6
:1053C000C9F30A55C9F313030DB143F480130193D4
:1053D000B8F1000323D068460093FFF77CFDDDE9B8
:1053E0000012D0B1C0F1200302FA03F30B43C24014
:1053F00063610192019BA361002B0CBF0122022279
:105400002261A5B1A5F2334505443D60C0F13500E8
:105410003060204603B0BDE8F0836161EAE701A88F
:10542000FFF759FD019B636120300122E8E704EB9F
:105430008203A0F2324038601869FFF72DFDC0EBFF
:105440004210E5E7406600085166000838B54B1C7D
:10545000144603D14FF0FF35284638BD938923F019
:10546000200393815368526BCDB28AB1A26B9A42EA
:1054700008DD23685A1E226003F8015C636801336B
:105480006360E9E7214600F0E0FB0028F1D0E1E7A6
:105490002169226841B1914206D212F8011CA94249
:1054A00002D1013A2260EAE7C4E90F2304F1440380
:1054B00063630323A363234603F8465F236001234A
:1054C000DEE710B50C46496B69B104F1440399421B
:1054D00001D0FFF739FB236C63600020606313B1D8
:1054E000E36B236010BD2369236000236360A389FD
:1054F00043F02003A3814FF0FF30F3E72DE9F0479D
:105500000C46ADF5227D0021CDE94411A549A091BD
:105510000DF10408A449A54FCDF818810646A191C4
:1055200000931378002B00F05881F95C11F008010A
:1055300002F1010519D06368002B0FDD23681A788A
:10554000BA5C120701D42A46EBE7459A013245922C
:1055500062680133013A62602360ECE7A19B214657
:10556000304698470028E9D0EDE7252B12D0994620
:105570006368002B40F39380226813784B4540F01A
:105580002C816368013B6360459B013201332260DB
:105590004593D8E74191439153782A2B02BF1023BA
:1055A000951C41930A22A94619F8011BA1F1300369
:1055B000092B1ED9DFF8F8A103225046FAF730FE76
:1055C00038B1419AA0EB0A00012383401343419371
:1055D0004D4615F8013B782B06D8572B10D8252BB4
:1055E000C5D057D8002B65D0032347930A23429395
:1055F00078E0439B02FB0311303943914D46D2E7DB
:10560000A3F15802202AEFD801A151F822F000BFDF
:10561000C3560008E9550008E95500081D57000861
:10562000E9550008E9550008E9550008E955000862
:10563000E9550008E9550008E95500083357000806
:10564000195700089B5600089B5600089B560008F7
:10565000E9550008D5560008E9550008E955000845
:10566000E9550008E955000843570008DD560008D1
:10567000BB560008E9550008E95500083F570008E7
:10568000E955000819570008E9550008E9550008D0
:10569000C3560008453B022BA6D8052321E0A19B59
:1056A00021463046984700283FF466AF44980028CA
:1056B00040F08B804FF0FF308BE0419A42F02002A7
:1056C0004192419A42F40072419210226E2B429212
:1056D00002D905E000234293032302E0082342930A
:1056E000042347936368002B39DD419B590604D49A
:1056F00023681A78BA5C120738D4479B022B47DC20
:105700006B46224641A9304600F06CF8012864D06F
:1057100002287FF418AFC9E70A22D7E72946404696
:1057200000F05AFA419B43F04003419305460123A0
:10573000D7E7419B43F0400341930023D1E7022385
:10574000CFE74198C3063FF5FEAE009B459A191D71
:1057500000911B68C0074CBF1A801A60F3E6A19B3A
:105760002146304698470028BFD09FE7459A01322E
:1057700045926268013A002A626002DD01332360CB
:10578000B6E7A19B2146304698470028B0D08DE768
:10579000042B0FDC6B46224641A9304600F07CF812
:1057A000B4E700BF4D540008C35400080E68000859
:1057B000A86700080A4B002B3FF4C5AE6B46224693
:1057C00041A93046AFF30080A0E7A3895B063FF50F
:1057D00071AF0DF5227DBDE8F0874498F9E700BF71
:1057E000000000002DE9F84315468A6880460C4603
:1057F00032B98A69002A14BF4FF0FF3201228A6051
:105800002268DFF89090D1065FBF1A68111D1960F9
:1058100016680027A06988B1012807D12B681A787B
:1058200063699B5C53B9002F31D022E0022820D15C
:105830002B681B7819F803301B071AD42368DA0683
:105840005EBF2B681B7806F8013B2A686B68013243
:105850002A60A268013B013A6B600137A26042B145
:10586000002BD7DCD4F880312946404698470028E1
:10587000D0D0236813F0100305D1E2680132E26052
:10588000A26902B1337023693B4423610020BDE863
:10589000F88300BF0E6800082DE9F04F9846744B5E
:1058A0000C468246164693E8070087B003AB83E8B0
:1058B0000700704BA169704A032908BF1A46A36804
:1058C00001925A1EB2F5AE7F88BF6FF4AE752746BF
:1058D00082BF03EB050940F25D13A36057F81C3B40
:1058E00043F4506398BF4FF0000923603D464FF0EA
:1058F000000B316803AB097853F82B000222FAF74A
:105900008FFC28B3BBF1010F59D162682AB9226814
:10591000082142F4007261602260226822F4A062D1
:105920002260A268511EA16092B13268511C3160A0
:10593000127805F8012B7268013A002A726007DCC0
:10594000D4F88021314650469047002840F08580A9
:105950000BF1010BBBF1030FCBD163680BB90A2329
:105960006360636845496069C91A00F035F94FF012
:10597000000BA3682268002B3DD03168606991F864
:1059800000C010F80C00002835D0BCF1300F24D135
:10599000100522D50BF1010BB9F1000F03D0013333
:1059A00009F1FF39A3607368013B002B73601BDDB5
:1059B000336801333360A368013BA360D9E7BBF1CF
:1059C000020FAED1226802F4C061B1F5007FBFD1F1
:1059D0001021616042F48072A2E722F4106222601A
:1059E0000B7805F8013BDEE7D4F8803131465046AC
:1059F00098470028DFD02368D9050DD5BD4209D9C5
:105A000015F8011CD4F87C3132465046984705F110
:105A1000FF394D46BD4228D0226812F0100213D142
:105A20002A706368019E39465046B047D8F8003066
:105A300021681A1DC8F8002011F0200F1B680FD034
:105A40001860E3680133E3602369ED1B5D442B4478
:105A50002361002007B0BDE8F08F4FF0000BCAE7CC
:105A6000CA074CBF18801860EBE70120F2E700BFBF
:105A700068650008D55E0008B55F0008BC670008CF
:105A8000B1F90C202DE9F041160705460C4654D417
:105A90004B68002B02DC0B6C002B48DDE66A002E05
:105AA00045D0002312F480522F68216A2B6030D039
:105AB000626DA389590705D56368D21A636B0BB170
:105AC000236CD21A0023E66A216A2846B047431C99
:105AD000A38906D129681D292BD82A4A0A41D6074D
